:400000000040002011000000D9130000D913000080B500AF01F0E4F980B584B000AF021CFB1D1A70204A3B1C0B3312781A701F4A3B1C0A3312781A700423013BFB6018E013
:400040001B4B1868391C0B31FA68131C5B009B18C3185B780B70164B1868391C0A31FA68131C5B009B18C3189B780B70FB68013BFB60FB68002B0ADB0D4B1968FA68131CF1
:400080005B009B185B5CFA1D12789A42D8D9094B3A1C0B3212781A60074B3A1C0A3212781A60BD4604B080BDCCF1FF0FCDF1FF0FE80000201CFF0B4020FF0B4080B500AF33
:4000C000244B12221A601820FFF7A6FF224B19221A60052002F098FF204B214A1278D2B21A60052003F0A8F803F048F8FA235B00181C03F07DF8012003F050F8194B1A4ABF
:400100001A601A4B8022D2051A60194B194A1A60194B194A126808218A431A60FA23DB00181C02F0E5FF154B181C03F085F8144BC02212011A60134B134A1A60134B8022F2
:4001400012061A60124B40221A60024B11221A60BD4680BD300010402CFF0B4028FF0B40E5F1FF0F04010B40060000800C020B407C002E402D3E00006CF02E40DC050000FF
:40018000000301400000014040FF008008010B400401014080B582B000AF72B6404B00221A60FB1D00221A7023E0FB1D1A78131C5B009B185B003B4A9B183B603B681A78EB
:4001C000597809020A43997809040A43DB781B0613431A1C3B6819795B791B020B439BB2101C191C01F080F9FB1D1A78FB1D01321A70FB1D1B78012BD7D92B4A2B4B101CC2
:40020000191C01F081F92A4B992212041A60294B00221A60284B00221A60284B20221A60274BC42292021A60264B20221A60264B80221A60254B8022D2031A60244B80227E
:4002400012021A60234B992212041A60224B992212041A60214B802212061A60204B204A1278D2B202210A43D2B21A701D4B1D4A1278D2B23C218A43D2B214210A43D2B2ED
:400280001A70174B164A1278D2B216210A43D2B21A70FFF713FF01F077F9BD4602B080BD6CF02E401835010024350100283501000001024000000240080004400001044011
:4002C000080104401801044000020440080204400C02044010500F4020500F4024500F4000700F4001700F4010B5064C2378002B07D1054B002B02D0044800E000BF0123AD
:40030000237010BDA803002000000000CC31010008B5084B002B03D00748084900E000BF07480368002B03D0064B002B00D0984708BDC04600000000CC310100AC030020CC
:40034000C80000200000000080B584B000AF786039607B68282B52D00DD8242B00D1B1E005D8012B23D0232B00D16AE048E1262B28D05AD8BCE04D2B00D120E109D8402BE3
:4003800000D11CE100D23BE1453B022B00D937E115E183225200934200D1B4E01222FF32934200D1C4E0522B00D10FE128E1964B15229A72954B181C02F00CFE002001F081
:4003C0009DF91EE1924B1B78032B0FD0914B1B78042B13D1904B181C02F0FCFD8F4B181C02F0F8FD8E4B01221A700AE18D4B181C02F0F0FD864B04221A7002E101E1844B09
:400400001B78032B04D0884B181C02F0E3FD06E0864B181C02F0DEFD7D4B04221A7000F065FB002001F06AF9EBE0814B181C02F0D1FD804B1A78804B101C191C0CF0E2F96F
:40044000DFE07E4B181C02F0C5FD3B681B68181C052100F037FF031C181C02F01BFD3B681B68181C042100F02DFF031C181C02F011FD3B681B68181C032100F023FF031C6C
:40048000181C02F007FD3B681B68181C022100F019FF031C181C02F0FDFC3B681B68181C012100F00FFF031C181C02F0F3FC3B681B68181C002100F005FF031C181C02F0ED
:4004C000E9FC9EE05E4B181C02F084FD504B01221A70584B1A785B781B021A4300231204120C1B0C1B041343181C01F0BBF988E0544B181C02F06EFD494B01221A70444B4B
:4005000002221A707DE0504B181C02F063FD00F0EDFA484B1A785B781B021A4300231204120C1B0C1B041343181C01F09BF968E0464B1B78012B16D13E4B454A19785B789F
:400540001B02194300230904090C1B0C1B040B43118852881204114300220A1C181C111C0DF00CFA2AE0394B1B78002B26D1394B181C02F02FFD384B1B78002B1BD1374BD8
:400580005B88002B17D0364B364A03CA03C3334B9A88334B1A81274B314A19785B781B02194300230904090C1B0C1B040B43181C111C0DF055FA284B01221A7021E07A68A6
:4005C0003B68101C191C00F0E1FA1AE03B68FB60FB689A89244B1B889A4205D1FB685B68181C00F04BFD0AE0FB689A891F4B1B889A4204D1FB685B68181C00F0B3FD00E050
:40060000C046BD4604B080BDFC000020D0310100C503002050250020E0310100FC310100C4030020183201003432010060320100743201006025002068010020943201001D
:40064000BC320100D83201000C330100DC030020D403002044330100382500205425002024250020E0000020C8030020CE03002080B582B000AF3B1C00221A703B1C0022E5
:400680005A703B1C00229A703B1C0022DA703B1C00221A713B1C00225A713B1C00229A71324B1B78022B13D0042B42D0012B00D059E0C046012000F0E9FF031C002BF9D1B5
:4006C0002A4B02221A702A4B181C02F083FC4AE002F05EFC021CFB1D1A70FB1D1B78002B26D0FB1D1B78722B03D0FB1D1B78522B1ED1204B181C02F06DFC1F4B1B78022B65
:4007000008D11A4B03221A701C4B1B78181C0CF0F1F80DE0184B1B78032B05D1134B03221A7001F04DF803E0104B04221A701AE019E03B1C181C0CF053F9C046012000F0C4
:40074000A5FF031C002BF9D10D4B181C02F042FC064B00221A700B4B181C02F03BFC002000F0CCFFC046BD4602B080BDC50300206033010074330100502500206025002024
:400780008C330100B433010090B583B000AF244B1B78032B03D0224B1B78022B3DD1FC1D032003F09BF9031C2370BC1D02F035FC031C2370FB1D1B78032B22D104F075FCD8
:4007C000031C042B04D004F070FC031C062B1FD102F076FB021C134B196880231B020B4001D0012300E00023D318002B06D10E4B1B78012B02D002F04DFD09E002F030FDB9
:4008000006E004F052FC031C022B01D002F028FDBB1D1B78181C02F004FCBD4603B090BD5025002008022440DD03002080B588B000AF62B602F0F8FA0C2002F02BFB224BFC
:40084000181C02F0C7FB214B181C02F0C3FB204B181C00F0DBFE00F049F93B1C181C0CF061F83B1C1B78002B02D01A4B02221A70194B1B78DBB210221343DAB2164B1A7049
:4008800003F034F900F0DAFCFFF7F2FEFFF77CFF124B1B78002B16D002F03AFA02F050FAC04602F00DFB021C0D4B196880231B020B4001D0012300E00023D318002BF0D1C7
:4008C00002F01EFDDCE7DBE7C4330100DC33010049030000C503002070250020C40300200802244080B588B000AF78603B1C0C3300221A707B681A783B1C0C335A707B6832
:400900005A783B1C0C339A707B689A783B1C0C33DA707B68DA783B1C0C331A713B1C0C3301225A713B1C0C3314229A713B1C0C330022DA713B1C14333A1C0C321A603B1CB9
:40094000143308229A800C4B1A883B1C14331A810A4B3A1C143219785B781B02194300230904090C1B0C1B040B43181C111C0DF081F8BD4608B080BDCC03002060250020B0
:4009800080B588B000AF78600A1CFB1C1A703B1C0C3302221A707B681A783B1C0C335A707B685A783B1C0C339A707B689A783B1C0C33DA707B68DA783B1C0C331A713B1C8C
:4009C0000C33FA1C12785A713B1C14333A1C0C321A603B1C143306229A800C4B1A883B1C14331A810A4B3A1C143219785B781B02194300230904090C1B0C1B040B43181CB4
:400A0000111C0DF037F8BD4608B080BDCC0300206025002080B500AF2C4B1B78002B03D10D2002F037FA03E0294B181C02F0D2FA264B00221A70274B181C02F0CBFA264B60
:400A40001B78181C012100F03DFC031C181C02F021FA214B1B78181C002100F033FC031C181C02F017FA1D4B181C02F0B3FA1C4B1B78181C012100F025FC031C181C02F05A
:400A800009FA174B1B78181C002100F01BFC031C181C02F0FFF9134B181C02F09BFA124B1B78181C012100F00DFC031C181C02F0F1F90D4B1B78181C002100F003FC031CD0
:400AC000181C02F0E7F9BD4680BDC046CC000020583401005C340100DE0300206C340100DF0300207C340100E003002080B500AF184B00221A80184B00221A80174B0022A2
:400B00001A80174B00221A80164B00221A80164B00221A80144B00225A80144B00221A80124B00225A80124B00221A70114B00221A70114B01221A70104B00221A70104B78
:400B400000221A700F4B00221A700F4B00221A70BD4680BDC8030020CA030020CC030020CE030020D0030020D4030020D8030020DC030020DD030020CC0000203825002078
:400B8000DE030020DF030020E003002080B590B000AF786039607B68403B0D2B00D94FE29A00BF4BD3181B689F463B68BB633B1C3633BA6B12891A803B1C3433BA6B52896A
:400BC0001A803B1C36331B88142B38D1B54B1B78002B34D13B1C3E3300221A8027E0BB6B5A683B1C3E331B88D3183B633B6B1A1DAD4B101C191C102202F050FF031C002B93
:400C00000BD13B6B1A88A94B1A803B6B5A88A74B5A80A44B01221A7011E03B1C3E33391C3E313A1C3632098812888A181A803A1C3E323B1C343312881B889A42CFD300E24F
:400C4000984B1B78012B00D07EE03B68FB623B1C3633FA6A12891A803B1C3433FA6A52891A803B1C36331B88152B00D06CE03B1C3E3300221A805FE0FB6A5A683B1C3E3343
:400C80001B880333D318181C00F0DAFD031C1A1C3B1C08339A80FB6A5A683B1C3E331B880533D318391C0831062289181A1C1023081C111C1A1C02F000FF3B1C08339A1D3E
:400CC0007B4B101C191C102202F0E8FE031C002B05D13B1C08339A88764B1A8022E03B1C08339A1D744B101C191C102202F0D6FE031C002B05D13B1C08339A886F4B1A8009
:400D000010E03B1C08339A1D6D4B101C191C102202F0C4FE031C002B04D13B1C08339A88684B1A803B1C3E33391C3E313A1C3632098812888A181A803A1C3E323B1C343326
:400D400012881B889A4297D37BE1564B1B78022B00D0DEE03B68BB623B1C363304221A803B1C3433BA6A12891A80BB6A1B7B012B00D0CEE03B1C3E3300221A80C0E0BB6AA0
:400D80005A683B1C3E331B88D3187B627B6A5A884D4B9A4200D055E07B6A1A88454B1B889A4206D27B6A1A88464B1B889A4200D248E07B6A1A883F4B1B889A420AD97B6AA7
:400DC0001A88404B1B889A4204D27B6A1A883F4B1A8037E07B6A1A88364B1B889A420AD27B6A1A88374B1B889A4204D97B6A1A88374B1A8026E07B6A1A882E4B1B889A42BF
:400E000020D97B6A1A882F4B1B889A421AD97B6A1A88264B5B889A4214D8264B1A88294B1B889A4204D27B6A1A88294B1A8009E0204B1A88234B1B889A4203D97B6A1A88EC
:400E4000224B1A807B6A1A88224B5B889A424DD1144B03221A70204B1B78002B1BD11F4B5B88002B17D01E4B1E4A03CA03C31B4B9A881B4B1A811C4B194A19785B781B02E0
:400E8000194300230904090C1B0C1B040B43181C111C0CF0E5FD104B01221A7039E0C04688340100DC03002018340100D403002028340100C803002038340100CC030020F3
:400EC00048340100CE03002002290000CA030020D0030020D8030020382500205425002024250020E0000020602500203B1C3E33391C3E313A1C3632098812888A181A80A9
:400F00003A1C3E323B1C343312881B889A4200D235E796E04C4B1B78012B22D14A4B02221A704A4B1B78032B47D1494B494A03CA03C3494B1A88464B1A81484B444A1978E8
:400F40005B781B02194300230904090C1B0C1B040B43181C111C0CF083FD3C4B04221A706FE03A4B1B78042B1FD13D4B1B88002B1BD03C4B374A03CA03C3394B1A88394B2C
:400F80001A81364B374A19785B781B02194300230904090C1B0C1B040B43181C111C0CF05FFD2A4B05221A7007E0284B1B78052B03D1264B06221A7043E042E03B683B6266
:400FC000224B1B78012B3AD13B6A9B78082B36D13B6A9B790A2B32D13B6A9A88224B5B889A422CD1214B1B78032B28D0174B02221A701F4B1A881F4B1B889A4204D21C4B80
:401000001B8801339BB203E01A4B1B8801339BB2194A1380144B5A88174B5A800F4B164A19785B781B02194300230904090C1B0C1B040B43181C111C0CF08AFC01E000E099
:40104000C046BD4610B080BD38250020DC03002018250020D8000020CA03002060250020D00300203C250020D403002051250020C8030020CE030020D803002080B582B0C8
:4010800000AF78607B681A782D4B1A707B685A782B4B5A707B689A78294B9A707B68DA78274BDA707B681A79254B1A717B685A79234B5A717B689A79214B9A717B68DA79D6
:4010C0001F4BDA711E4B9B78022B21D002DC012B05D032E0032B22D0062B27D02DE0184B1B78002B13D1174B01221A70164B181C01F070FF154B1B88002B08D0144B1B884A
:40110000002B04D0134B181CFFF7ECFB15E014E00B4BDA78104B1A70FFF77CFC0DE0084BDA780E4B1A70FFF775FC06E0044BDA780B4B1A70FFF76EFCC046BD4602B080BDC2
:4011400030250020CC000020C0340100CC030020CE03002034250020DE030020DF030020E003002080B586B000AF78607B6801333B617B681B78002B00D052E03A692A4B5A
:40118000101C191C042202F089FC031C002B33D17B6805331B78012B2ED17B6806331B78191C7B6807331B781B029AB23B1C0E338A181A801D4B181C01F00CFF3B1C163301
:4011C00000221A8010E03B1C16331B8808337A68D3181B78181C01F05DFE3B1C16331A883B1C163301321A803A1C16323B1C0E3312881B889A42E6D30D4B5B781A1C0823A2
:4012000013400DD00A4B5B781A1C1023134007D0084B181C01F0DEFE074B01221A70FFE7C046BD4606B080BD34250020D434010030250020DC340100DD03002080B582B01F
:4012400000AF1C4B1B78012B00D030E001F0A0FE021CFB1D1A70FB1D1B78002B26D0FB1D1B78792B03D0FB1D1B78592B09D1124B181C0021FFF784FB104B181C01F0AAFE24
:4012800010E0FB1D1B786E2B03D0FB1D1B784E2B08D1094B181C0121FFF772FB084B181C01F098FE034B00221A70FFE7C046BD4602B080BDDD03002034250020FC3401008D
:4012C0000835010080B582B000AF78600A1CFB1C1A70FB1C1B78052B0FD17B68181C3B4902F04AFB0B1C181C394902F001FB031C7B607B6830337B6062E0FB1C1B78042B6E
:401300000FD17B68181C324902F036FB0B1C181C304902F0EDFA031C7B607B6830337B604EE0FB1C1B78032B10D17B68181C294902F022FB0B1C181CFA23990002F0D8FAFC
:40134000031C7B607B6830337B6039E0FB1C1B78022B10D17B68181CFA23990002F00CFB0B1C181C642102F0C3FA031C7B607B6830337B6024E0FB1C1B78012B0FD17B6874
:40138000181C642102F0F8FA0B1C181C0A2102F0AFFA031C7B607B6830337B6010E0FB1C1B78002B0AD17B68181C0A2102F0E4FA0B1C7B607B6830337B6001E020237B6080
:4013C0007B68DBB2181CBD4602B080BD40420F00A08601001027000080B500AFFEE7C04680B586B000AF224B7B61224B3B61204B7B6135E03B691B68FB603B695B68BB60CD
:401400003B699B683B6000237B600CE0FB681A68BB681A60BB680433BB60FB680433FB607B6804337B607A683B689A42EED13B69DB683B6000237B6008E0BB6800221A6058
:40144000BB680433BB607B6804337B607A683B689A42F2D13B6910333B617B69013B7B617B69002BC6D102F0F3FAFFF7DFF9FEE7010000007C35010080B582B000AF154BFE
:40148000144A126801218A431A6000237B600FE07B68032B04D8104B7A689200D35800E00E4B0F4A796889008B507B6801337B607B682F2BECD9FEF76DFE0A4B00221A60FB
:4014C000044B044A126801210A431A60BD4602B080BDC0460000104000000000D913000000000020C000002080B582B000AF786039607A683B68101C00211A1C02F0E6FA57
:40150000BD4602B080BDC04680B586B000AF7860396000233B6100237B612EE07B699B007A68D3181B68BB603B1C0F33BA681A70BB68FF229343BB6017E03B695B003A6860
:40154000D3181B781A1CBB68D3183A69520039688A1852781A703B6901333B613B1C0F331A783B1C0F33013A1A703B1C0F331B78002BE2D17B6901337B617B69002BCDD076
:40158000BD4606B080BDC04680B500AF054B03221A60054B03221A60044B00221A60BD4680BDC0463000304030003140000E3F4080B500AF074B00221A70074B00221A708E
:4015C000064B00221A7000F00DF8054B00221A70BD4680BD702500205C2500206E2500204825002080B500AF064B181C00210A2202F06CFA044B181C0021062202F066FAFB
:40160000BD4680BD642500205425002090B585B000AF78603B1C0E3301221A80154B1B78002B04D1FFF7C4FF124B01221A707B68002B18D0104B7A681A603C1C0E340F4A7C
:401640000F4B101C191C322202F066FA031C23803B1C0E331B88002B05D10A4B01221A70094B08221A703B1C0E331B88181CBD4605B090BDE80300204C250020B51B000021
:40168000F0030020502500205125002090B585B000AF021CFB1D1A703B1C0E3300221A80154B1B781A1C012313401ED03C1C0E34FB1D1B78181C08F023FE031C23803B1C76
:4016C0000E331B88002B10D10B4B1B7801229343DAB2094B1A70084B1B781A1C0223134003D03B1C0E3328221A803B1C0E331B88181CBD4605B090BD4825002090B585B050
:4017000000AF021CFB1D1A70294B1B78042B42D1284B1B78DBB21A1C042313403BD1FB1D1B78002B0BD1244B3C221A82224B5B6820221A80204B5B6830225A8010E0FB1D19
:401740001B78012B0CD11C4B96221A821A4B5B68C822D2001A80184B5B688022D2015A80164BFA1D12781A703C1C0E34124B181C0BF0B6FA031C23803B1C0E331B88002B95
:4017800008D10C4B1B78DBB204221343DAB2094B1A7005E004E03B1C0E33832252001A803B1C0E331B88181CBD4605B090BDC04650250020702500203C0100206E2500202D
:4017C00080B500AF0BF0F8FA044B1B78DBB208221343DAB2014B1A70BD4680BD7025002080B584B000AF78600A1CFB1C1A700023BB60BB68002B20D07B689A79BB681A70FC
:401800003B1C0F3300221A7012E03B1C0F331B780133BA68D3183A1C0F32127879688A5C1A703B1C0F331A783B1C0F3301321A703B1C0F331B78052BE7D9BD4604B080BD01
:4018400080B582B000AF78607B681B781A1C7B6801331B781B029BB213439BB2181CBD4602B080BD90B585B000AF3B1D18802B4B1B78022B05D03B1C0C33832252001A80A6
:4018800045E0FFF7AFFE264A3B1D111C1A1C0223081C111C1A1C02F010F9224B00221A703B1C0F3300221A7014E03B1C0F331A78131C5B009B185B001B4A9B18181C00210C
:4018C000042202F003F93B1C0F331A783B1C0F3301321A703B1C0F331B78012BE5D93C1C0C343B1D18680CF065F8031C23803B1C0C331B88002B0AD10C4B01221A700C4B18
:401900001B78DBB202221343DAB2094B1A703B1C0C331B88181CBD4605B090BD50250020602500206F2500205C010020512500207025002080B582B000AF78607B68DA8848
:401940000D4B9A4215D10D4B5B88002B08D17B689A880A4B5A807B689A78084B1A7008E0074B1B687A68063286214900081C111C9847BD4602B080BD052A00005425002057
:401980004C25002080B582B000AF78607B689A880B4B9A4211D10B4B9B88002B04D17B685A88084B9A8008E0074B1B687A68043286214900081C111C9847BD4602B080BDFD
:4019C00002290000542500204C25002080B582B000AF78600C4B5A887B689B899A420FD10A4B1B68832251007A68081C111C9847074B1B78DBB201229343DAB2044B1A70F8
:401A0000BD4602B080BDC046542500204C2500207025002080B582B000AF7860BD4602B080BDC04680B582B000AF7860BD4602B080BDC04680B582B000AF7860BD4602B060
:401A400080BDC04680B582B000AF7860BD4602B080BDC04680B500AF094B00225A70084B00221A70074B1B78052B03D1054B07221A7002E0034B08221A70BD4680BDC04604
:401A8000602500205125002080B582B000AF78607B681B78032B3ED1204B1B78DBB21A1C0223134037D01E4B1B78022B10D002DC012B05D024E0032B12D0042B18D01FE0F8
:401AC000184B1B680822FF32101C0021984717E0144B1B6884225200101C002198470FE0104B1B680A22FF32101C0021984707E00C4B1B6885225200101C00219847C0463A
:401B0000064B1B78DBB202229343DAB2034B1A70034B00221A70BD4602B080BD70250020512500204C25002080B500AFBD4680BD80B584B000AF78603B1C0E3300221A70B6
:401B40007B689B79002B1CD13B1C0F3300221A7012E03B1C0F331B787A68D35C002B04D03B1C0E3301221A700BE03B1C0F331A783B1C0F3301321A703B1C0F331B78052BD6
:401B8000E7D93B1C0E331B78181CBD4604B080BD80B582B000AF021CBB1D1A80BD4602B080BDC04680B582B000AF7860BD4602B080BDC04680B584B000AF021C3960FB1DA7
:401BC0001A70C54B1B78DBB201221343DAB2C24B1A70FB1D1B78412B00D113E123DC212B00D1A7E00DDC022B00D199E002DC012B41D090E1052B00D197E0202B00D189E126
:401C000089E1282B00D1B9E006DC262B00D1B9E0272B00D1AAE07EE12A2B00D1A1E0402B00D12FE177E1492B00D14AE111DC452B00D118E106DC422B00D1F3E0432B00D1C0
:401C4000F3E068E1462B00D112E1472B00D114E161E1532B00D11FE106DC4D2B00D135E1522B00D113E156E1712B00D1C4E0FA2B00D147E14FE13B1C0C3307221A703B1C91
:401C80000C3300225A703B1C0C33181C03F03CFA3B1C0C3307221A703B1C0C3301225A703B1C0C33181C03F02FFA8C4B1B68181CFFF73EFF031C002B11D0884B1B68181CDE
:401CC00001F018FF854B1B68181C0021FFF788FD824B1B68181C0121FFF782FD19E0804B1A78804B1A70804B1A787E4B5A707F4B1A787C4B9A707B4B181C01F0FBFE794B2E
:401D0000181C0021FFF76CFD764B181C0121FFF767FD00200AF0A6FE754B04221A70FAE03B68181CFFF7B0FEF5E03B681A78714B1A70F0E0684B1B78DBB21A1C202313403C
:401D40000ED16D4B1B78102B02D16B4B0522DA706A4B1A78684B101C191C0AF08BFFDAE0D9E03B68181CFFF71DFFD4E03B68181CFFF718FF5E4B02221A70CCE05C4B042261
:401D80001A70C8E05A4B1B78022B34D0524B1B78DBB21A1C012313402DD04F4B1B78DBB21A1C042313400BD0514B03221A704A4B1B78DBB204229343DAB2474B1A701AE03E
:401DC000454B1B78DBB21A1C082313400BD0484B04221A70404B1B78DBB208229343DAB23D4B1A7007E0424B1B78032B03D1404B04221A708FE08EE03B681B88181CFFF787
:401E0000C7FE88E03D4A3B68111C1A1C0223081C111C1A1C01F051FE394B00221A70FFF783FE78E0FFF716FE75E03B685B88312B05D83B1C0E333A6852881A8003E03B1CF7
:401E40000E3332221A803B683A1C0E321288198800230904090C1B0C1B040B43181C111C0CF0FCF857E03B68181C00F075F852E03B68181C00F02AFA4DE03B68181C00F019
:401E8000D1FC48E03B68181C00F0DEFD43E03B68181CFFF7C7FD3EE03B68181CFFF796FD3B68181CFFF7C6FD0B4B1B78DBB21A1C0123134004D13B6818680BF041FD2AE06B
:401EC00029E03B68181CFFF7BDFD24E03B68181CFFF7A0FD1FE0C04670250020580100207CF1FF0F500100207DF1FF0F7BF1FF0F502500205C25002068010020602500206B
:401F000051250020114B1B7801221343DAB20F4B1A7000E0C0460E4B1B78DBB21A1C112313400FD00A4B1B78DBB201229343DAB2074B1A70074B1B68FA1D11783A68081C27
:401F4000111C9847BD4604B080BDC04648250020702500204C25002080B586B000AF786000233B61754B1B78012B00D0E2E0744B1B78DBB21A1C0223134000D1DAE03B1C57
:401F80000C337A6812891A803B1C0C331B88062B05D03B1C0C331B88142B00D0C3E03B1C0A337A6852891A803B1C143300221A8085E07B685A683B1C14331B88D3183B618A
:401FC0003B1C0C331B88062B00D06EE03B1C0F3300221A703B1C173300221A705BE03B1C17331A785749131C5B009B185B00CB189A883B699B889A4246D13B1C17331A782F
:402000005049131C5B009B185B005B5A002B1AD13B1C17331A784B49131C5B009B185B003A69C9180423081C111C1A1C01F045FD454B1B780133DAB2434B1A703B1C0F334C
:4020400001221A7020E03B1C17331B78002B0ED13B1C17331B785A1C3A49131C5B009B185B00CB189A883B699B889A420CD0374B1B683A6904320C21FF31081C111C9847C1
:402080003B1C0F3301221A703B1C17331A783B1C173301321A703B1C17331B78012B04D83B1C0F331B78002B99D03B1C1433391C14313A1C0C32098812888A181A803A1CC4
:4020C00014323B1C0A3312881B889A4200D270E73B69002B1ED03B695A881D4B9A4219D1164B02221A70184B00221A7000F032F8031C002B0ED0154B1B6884225200101CEC
:40210000002198470E4B1B78DBB202229343DAB20B4B1A700A4B1B78DBB201229343DAB2074B1A7006E0094B1B680822FF32101C00219847BD4606B080BDC0465125002014
:40214000702500205C0100206F2500204C250020FFFF000090B583B000AF05E01A4B1B780133DAB2184B1A70174B1B78012B0AD8154B1B781A1C1549131C5B009B185B0017
:402180005B5A002BEAD0104B1B78012B11D80E4B1B781A1C131C5B009B185B000B4A9A18BC1D0B4B1868111C0BF01CFC031C238003E0BB1D802252001A80BB1D1B88181C18
:4021C000BD4603B090BDC0466F2500205C0100206025002080B582B000AF78607B68DB88364A9B18042B00D963E09A00344BD3181B689F46334B1B88002B04D17B689A88BC
:40220000304B1A8056E0304B1B687A68063286214900081C111C98474CE02A4B5B88002B04D17B689A88274B5A8043E0264B1B687A68063286214900081C111C984739E0DC
:40224000204B9B88002B04D17B689A881D4B9A8030E01D4B1B687A68063286214900081C111C984726E0174BDB88002B04D17B689A88144BDA801DE0134B1B687A68063293
:4022800086214900081C111C984713E00D4B1B89002B04D17B689A880A4B1A810AE00A4B1B687A68063286214900081C111C984700E0C046BD4602B080BDC04600D6FFFF6C
:4022C0002C350100642500204C25002080B592B000AF7860CA4B1B78DBB21A1C0223134000D11AE23B1C3E337A6812891A803B1C3C337A6852891A807B685B683B64C14B47
:402300001B78032B00D0DEE03B1C463300221A80CFE03B6C181CFFF793FA031C1A1C3B1C24331A803B6C02333B643B6C1A783B1C24339A703B6C01333B643B6C181CFFF761
:402340007FFA031C1A1C3B1C24339A803B6C02333B643B1C3E331B88152B12D13B1C243302229A753A1C2A323B6C111C1A1C1023081C111C1A1C01F0A0FB3B6C10333B6452
:4023800032E03B1C3E331B88072B2DD13B1C243301229A753B6C181CFFF752FA031C1A1C3B1C2433DA803B6C02333B64964B1B781A1C9649131C5B009B185B00CB189B8874
:4023C000C0225201934203D0914A934206D00BE03B1C2433181CFFF7FDFE05E03B1C2433181CFFF7A7FAC0463B1C24339988864B1B781A1C8548131C5B009B185B00C318AF
:402400005B88994243D1804B1B780133DAB27E4B1A7000F08FF9031C002B37D00222FF3293422BD1774B04221A70774B00221A7000F0C0FA031C002B1ED0812252009342DE
:4024400012D1704B05221A70724B1B681222FF32101C002198476A4B1B78DBB202229343DAB2674B1A7008E06A4B1B6885225200101C0021984700E0C04608E0654B1B685F
:402480000A22FF32101C0021984700E0C0465C4B1B78DBB201229343DAB2594B1A703B1C4633391C46313A1C3E32098812888A181A803A1C46323B1C3C3312881B889A42BD
:4024C00000D226E729E14F4B1B78022B00D024E13B1C463300221A8016E13B6C181CFFF7AFF9031C1A1C3B1C0C331A803B6C02333B643B6C181CFFF7A3F9031C1A1C3B1CAF
:402500000C335A803B6C02333B643B6C181CFFF797F9031C1A1C3B1C0C339A803B6C02333B643B1C3E331B88062B04D13B1C0C3302229A7573E03B1C3E331B88082B00D02B
:402540006DE03B1C0C3301229A753B6C181CFFF777F9031C1A1C3B1C0C33DA803B6C02333B643B1C443300221A8034E03B1C44331A882649131C5B009B185B00CB189A882B
:402580003B1C0C33DB889A421ED13B1C44331A881E49131C5B009B185B005B5A002B13D13B1C44331A881949131C5B009B185B00381C0C300222C91882180423081C111C13
:4025C0001A1C01F07AFA0BE03B1C44331A883B1C443301321A803B1C44331B88012BC5D9094B1B781A1C0949131C5B009B185B00CB189B881A1C084B9A420FD00FE0C046C9
:4026000070250020512500206F2500205C010020011800004C25002012180000C0463B1C0C3319883E4B1B781A1C3E48131C5B009B185B00C3185B88994253D1384B1B78CA
:402640000133DAB2364B1A70FFF784FD031C002B47D080225200934233D1334B03221A702F4B00221A7000F065F8031C002B26D00222FF32934212D12B4B05221A702B4B60
:402680001B681222FF32101C00219847284B1B78DBB202229343DAB2254B1A7010E0234B1B680A22FF32101C00219847204B1B78DBB202229343DAB21D4B1A7000E0C046A0
:4026C00010E01A4B1B6884225200101C00219847174B1B78DBB202229343DAB2144B1A7000E0C046124B1B78DBB201229343DAB20F4B1A703B1C4633391C46313A1C3E32BF
:40270000098812888A181A803A1C46323B1C3C3312881B889A4200D2DFE6BD4612B080BD6F2500205C010020512500204C2500207025002090B583B000AF05E01D4B1B78D8
:402740000133DAB21B4B1A701A4B1B78012B0AD8184B1B781A1C1849131C5B009B185B005B5A002BEAD0134B1B78012B18D8114B1B78181CBC1D114A0F49031C5B001B187B
:402780005B00585ACB185B881B04191C014300230B1C1068191C0BF0F1F8031C238003E0BB1D0222FF321A80BB1D1B88181CBD4603B090BD6F2500205C01002060250020DF
:4027C00080B582B000AF3B1C00221A803B1C00225A80114B1B78002B09D1104B5B8801339AB23B1C1A800E4B1A893B1C5A803B1D3A1C12681A603A1D002311880904090CB6
:402800001B0C1B040B43528812041B041B0C1343181CBD4602B080BD6F250020542500205C01002080B58AB000AF78603B1C083300225A805A4B1B78042B00D0ADE0594B9C
:402840001B78DBB21A1C0223134000D1A5E03B1C1E337A6812891A807B681A7B3B1C08331A753B1C08337A6812881A803B1C08331B7D012B04D13B1C263304221A8003E0B6
:402880003B1C263312221A807B685B683B623B1C243300221A803EE03B6A181CFEF7D0FF031C1A1C3B1C08335A803B6A02333B623B1C08331B7D022B0ED13A1C0C323B6A8B
:4028C000111C1A1C1023081C111C1A1C01F0F5F83B6A10333B6214E03B6A181CFEF7B0FF031C1A1C3B1C08339A803B6A02333B622D4B1B78002B04D13B1C0833181CFFF7A8
:4029000041F83B1C2433391C24313A1C2632098812888A181A803A1C24323B1C1E3312881B889A42B8D33B1C08335A881F4B1B889A422AD11C4B1B780133DAB21A4B1A70F8
:4029400000F038F8031C002B1ED081225200934212D1134B05221A70154B1B681222FF32101C002198470F4B1B78DBB202229343DAB20C4B1A7008E00D4B1B688522520032
:40298000101C0021984700E0C046064B1B78DBB201229343DAB2034B1A70BD460AB080BD51250020702500206F250020C01000204C25002090B583B000AFFFF701FF031C81
:4029C0001A1C3B1C1A600BE01C4B1B780133DAB21A4B1A70FFF7F4FE031C1A1C3B1C1A603B1C1B88012B09D03B1C5B88002B05D03B1C1A883B1C5B889A4203D90F4B1B781D
:402A0000002BE1D00D4B1B78002B0DD1BC1D0C4B3A1C1868111C0AF09BFF031C23803B1C5A88084B1A8003E0BB1D812252001A80BB1D1B88181CBD4603B090BD6F25002067
:402A400060250020C010002080B582B000AF7860AA4B1B78DBB21A1C0223134000D149E17B689B790A2B00D044E1A54B1B78052B00D93EE19A00A34BD3181B689F46A04B83
:402A800002221A70A04B00221A70FFF763FB031C002B4ED08022520093423AD19B4B1B681022FF32101C00219847954B03221A70954B00221A70FFF73DFE031C002B26D0BD
:402AC0000222FF32934212D18D4B05221A708F4B1B681222FF32101C00219847874B1B78DBB202229343DAB2844B1A7010E0874B1B680A22FF32101C002198477F4B1B7856
:402B0000DBB202229343DAB27C4B1A7000E0C04610E07E4B1B6884225200101C00219847764B1B78DBB202229343DAB2734B1A7000E0C046714B1B78DBB201229343DAB2F5
:402B40006E4B1A70D6E0704B1B780133DAB26E4B1A70FFF7FFFA031C002B3FD080225200934233D1654B1B78DBB201229343DAB2624B1A70624B03221A70634B00221A70B4
:402B8000FFF7D8FD031C002B1ED00222FF32934212D15B4B05221A705C4B1B681222FF32101C00219847554B1B78DBB202229343DAB2524B1A7008E0544B1B680A22FF321F
:402BC000101C0021984700E0C04608E04F4B1B6884225200101C0021984700E0C046474B1B78DBB201229343DAB2444B1A7081E0454B1B780133DAB2434B1A70FFF79AFD7B
:402C0000031C002B37D00222FF3293422BD13C4B04221A703C4B00221A70FFF7CBFE031C002B1ED081225200934212D1344B05221A70364B1B681222FF32101C002198474A
:402C40002E4B1B78DBB202229343DAB22B4B1A7008E02E4B1B6885225200101C0021984700E0C04608E0294B1B680A22FF32101C0021984700E0C046204B1B78DBB201224A
:402C80009343DAB21D4B1A7034E01F4B1B780133DAB21D4B1A70FFF78DFE031C002B1ED081225200934212D1154B05221A70174B1B681222FF32101C002198470F4B1B7823
:402CC000DBB202229343DAB20C4B1A7008E00F4B1B6885225200101C0021984700E0C046064B1B78DBB201229343DAB2034B1A7000E0C046BD4602B080BDC04670250020AF
:402D000051250020403501006F2500204C25002080B582B000AF094B1B68DAB2FB1D7F218A431A70054BFA1D12781A60FB1D1B78DB09DBB2181CBD4602B080BD10020440B7
:402D400080B500AF00F050F8054B181C00F00EF8032000F017F800F03DF8BD4680BDC046652D000080B500AFBD4680BD80B582B000AF7860024B7A689A64BD4602B080BD6D
:402D80000000002090B585B000AF021CFB1D1A701623FB603C1C0B3400F03FF9031C23700A4B0A4A11680A4A1140FA1D1078FA68041C9440221C0A431A603B1C0B331B781C
:402DC000181C00F02EF9BD4605B090BD00E400E0FFFF3FFF80B500AF024B04221A60BD4680BDC04600E100E080B500AF024B04221A60BD4680BDC04680E100E080B500AF6F
:402E000000F06EF8BD4680BD80B500AF054B054A1268802109060A431A6000F017F8BD4680BDC0460000244080B500AF064B1B78002B04D1FFF7E2FF034B01221A70FFF74F
:402E4000E3FFBD4680BDC046C410002080B500AFBD4680BD80B582B000AF00237B60044B1B687B607B68181CBD4602B080BDC0464003244080B582B000AF054B1A681F2371
:402E800013407B607B68181CBD4602B080BDC0460803244080B582B000AF7860C046064B1A681F231340082BF9D0044B7A681A60BD4602B080BDC046080224404002244057
:402EC00080B582B000AF054B1A681F2313407B607B68181CBD4602B080BDC0460802244080B500AF184B194A1A60194B00221A60184B01221A60184B184A1A60184B07220E
:402F00001A60184B00221A60174B01221A60174B124A1A60164B00221A60164B04221A60154B00221A60154B00221A60144B00221A60144B00221A60134B00221A60134B9D
:402F400000221A60BD4680BD000024400F00000240002440480024400003244007000080040324401003244044002440000224400402244050002440880E2440C80E244080
:402F8000480F2440080F2440C80F2440880F244080B582B000AF00237B60FFF76BFF031C002B03D0FFF756FF031C7B60084B1A68D8239B00134005D000237B60044BD822F5
:402FC00092001A607B68181CBD4602B080BDC046C00F244080B584B000AF78600023FB6009E07A68FB68D3181B78181CFFF752FFFB680133FB607A68FB68D3181B78002B0E
:40300000EFD1BD4604B080BD0230800803D00138FDD1C046C046C0467047EFF3108072B6704780F31088704780B500AF0B4B0B4A126801218A431A60094B094A1268302188
:403040008A4310210A431A60054B054A126807218A4301210A431A60BD4680BD00F02E4000FF2E4080B500AF0E4B0E4A126802218A431A600C4B0C4A126807218A430221D1
:403080000A431A60084B084A126830218A4320210A431A60034B034A126801210A431A60BD4680BD00F02E4000FF2E4090B585B000AF78603C1C0F34FFF7AFFF031C237009
:4030C000094B796807220A40D104074A1068074A02400A431A603B1C0F331B78181CFFF7A0FFBD4605B090BD00010B40FFFFC7FF80B584B000AF78600023FB60154B154AF9
:40310000126801210A431A60134B144A1A60144B134A1268802109020A431A607B68002B13D01023FB600DE0012000F085F800F019F8031C002B02D00023FB6005E07B68F0
:40314000013B7B607B68002BEED1FB68181CBD4604B080BD60F02E4078002E400220000010002E4080B500AF034B1A6801231340181CBD4680BDC0460C002E4080B500AF99
:40318000FFF752FF044B044A1268802109060A431A60BD4680BDC04600F02E4080B584B000AF78600C4B1A6801231340FB607B68002B02D0012B03D005E0FFF735FF06E027
:4031C000FFF750FF03E0002000F008F8C046FB68181CBD4604B080BD00F02E4080B582B000AF021CFB1D1A7001BEBD4602B080BD80B582B000AF786008E00C4B1B68181C3D
:40320000FFF702FF7B680A4A9B187B607A6880231B029A42F1D8074B1B687A685343181CFFF7F2FEBD4602B080BDC046780100200080FFFF7001002080B582B000AF021C50
:40324000BB1D1A80BB1D1B88044A12785343181CFFF7DAFEBD4602B080BDC0467401002090B583B000AFFC1DFFF7D7FE031C2370074B074A126804218A431A6030BFFB1D17
:403280001B78181CFFF7CDFEBD4603B090BDC04610ED00E090B583B000AFFC1DFFF7BDFE031C2370114B114A1268520052081A600F4B104A128892B21A600F4B0E4A12686E
:4032C00004210A431A600D4B1B683B600220FFF7EDFE30BF094B3A681A60FB1D1B78181CFFF79FFEBD4603B090BDC04600000B400C000B4052F1FF0F10ED00E000010B4073
:4033000090B583B000AFFC1DFFF787FE031C2370114B114A1268802109060A431A600F4B0F4A128892B21A600E4B0E4A126804210A431A600C4B0C4A1268FF218A43F12130
:403340000A431A6030BFFB1D1B78181CFFF769FEBD4603B090BDC04600000B400C000B4050F1FF0F10ED00E02C000B4080B5ACB000AFF860B960BB1D1A800023A420C0192A
:4033800003600023A021C9190B60BB689422D2191360BB1D1A889420C0190368D218594B9A4200D994E09421C9190B68DB09AC22D2191360AC20C0190368DB019C21C91974
:4033C0000B6077E000239822D21913600023A820C019036050E09C21C9190A689420C01903689A422ED3BB1D1A88A421C9190B689A4227D93A1C1432A820C0190368D31890
:403400001A78F968A420C0190368CB181B789A4210D0FA68A421C9190B68D3181A78391C1431A820C0190368CB181A7001239821C9190B60A422D21913680133A420C0192C
:4034400003600BE09C21C9190B681B78DAB2391C1431A820C0190368CB181A709C21C9190B6801339C22D2191360A820C01903680133A821C9190B60A822D21913687F2B28
:40348000A9D99820C0190368002B0CD0AC21C9190A683B1C1433101C191C00F0DFF8031CA022D2191360AC20C01903680133AC21C9190B60BB1D1A88A420C01903689A42A5
:4034C0000AD9A021C9190B68002B00D17AE703E00123A022D2191360A020C0190368002B09D0A021C9190B68012B04D001235B42A022D2191360A020C0190368181CBD4615
:403500002CB080BDFFFF010080B582B000AF78600A1CBB1C1A80BB1C1A887B681A60BD4602B080BD80B582B000AF78600A1CBB1C1A80BB1C1A887B681A60BD4602B080BDD9
:4035400080B582B000AF021CBB1D1A80BB1D1B88181CFFF771FEBD4602B080BD80B500AF00F068F8BD4680BD80B500AF00F06CF8BD4680BD80B500AF00F066F8044B181CFE
:4035800000F024F8002000F02DF8BD4680BDC046E538000080B500AF024B181C00F004F8BD4680BDE538000080B582B000AF786000F04AF87B68181C00F008F8002000F082
:4035C00011F800F037F8BD4602B080BD80B582B000AF7860024B7A681A67BD4602B080BD0000002090B585B000AF021CFB1D1A700623FB603C1C0B34FFF70FFD031C237049
:403600000B4B0B4A1268C021101C8843011CFA1D1078FA68041C9440221C0A431A603B1C0B331B78181CFFF7FCFCBD4605B090BD0CE400E080B500AF024B802252011A60B7
:40364000BD4680BD00E100E080B500AF024B802252011A60BD4680BD80E100E090B5A9B000AF7860396000239822D219136000239422D21913607A684D4B9A4200D98CE05D
:403680003B68002B00D188E07A684A4B9A4201D9494A00E0494A3B1C0C331A603B1C0C337F225A603B1C0C331A1C08323B68101C191C802200F001FA414B3A1C0C321A609E
:4036C000404B414A1A603E4B1B681B0F1A07A0231B069A4204D03A4B1A680F23134000E000239822D21913609822D2191368002B52D13C1C9F34FFF790FC031C237000F0EB
:4037000069F8031C9422D21913609422D2191368002B05D100F08EF8031C9822D21913609822D2191368002B24D13B1C0C33274A1A603B1C0C331A687B681B041A433B1C9C
:403740000C331A601E4B3A1C0C321A601D4B204A1A601B4B1B681B0F1A07A0231B069A4204D0174B1A680F23134000E000239822D21913609422D2191368002B05D100F074
:4037800081F8031C9422D21913603B1C9F331B78181CFFF746FC04E003E004239822D21913609822D2191368181CBD4629B090BDFF030000FF010000B6D70001B6D7000095
:4037C000080010400400104004000080B6D800000500008080B584B000AF0023FB603B1D0F4A1A600F4A3B1D5A600F4B3A1D1A600E4B0F4A1A600C4B1B681B0F1A07A0231B
:403800001B069A4204D0084B1A680F23134000E00023FB60FB68181CBD4604B080BDC046B6E900000825002008001040040010401600008080B582B000AF00237B600D4BD4
:403840000D4A1A600D4B0E4A1A600A4B1B681B0F1A07A0231B069A4204D0064B1A680F23134000E000237B607B68181CBD4602B080BDC04608001040B6E800000400104007
:403880001500008080B584B000AF0023FB603B1D0F4A1A600F4A3B1D5A600F4B3A1D1A600E4B0F4A1A600C4B1B681B0F1A07A0231B069A4204D0084B1A680F23134000E0FD
:4038C0000023FB60FB68181CBD4604B080BDC046B6EA00000825002008001040040010401700008080B500AF0FF05CFCBD4680BD002934D00123002210B488422CD30124E9
:403900002407A14204D2814202D209011B01F8E7E400A14204D2814202D249005B00F8E7884201D3401A1A434C08A04202D3001B5C0822438C08A04202D3001B9C0822439D
:40394000CC08A04202D3001BDC082243002803D01B0901D00909E3E7101C10BC7047002801D00020C04307B4024802A14018029003BDC046D90000000029F0D003B5FFF7F9
:40398000B9FF0EBC4243891A1847C046002941D010B4041C4C40A44601230022002900D54942002800D5404288422CD301242407A14204D2814202D209011B01F8E7E400C4
:4039C000A14204D2814202D249005B00F8E7884201D3401A1A434C08A04202D3001B5C0822438C08A04202D3001B9C082243CC08A04202D3001BDC082243002803D01B0933
:403A000001D00909E3E7101C6446002C00D5404210BC7047002806D003DB0020C043400801E08020000607B4024802A14018029003BDC046190000000029EBD003B5FFF72C
:403A4000A7FF0EBC4243891A1847C0467047C04670B50E4B0E4D0024ED1AAD101E1CAC4204D0A300F35898470134F8E70FF074FD084B094D0024ED1AAD101E1CAC4204D0F1
:403A8000A300F35898470134F8E770BD6435010064350100643501006C35010030B50023934208D0C55C0133CC18013C2478A542F6D0281B00E0002030BD10B50023934227
:403AC00003D0CC5CC4540133F9E710BD031C8218934202D019700133FAE7704710B501F074FA10BD10B501F086FA10BD10B500F0DBF810BD10B507490446097802200029A9
:403B000007D1204601F0BAFA002802D1204609F093F810BD8E020020F7B51F4E0024307815460F46002804D00824B76075802046FEBD002F00D1012401F05DFA0098002829
:403B400005D0172D03D301204002854201D90124EBE7002CE9D12946384600F023F80400E3D1706800F01CF80400DED1706800F015F80400D9D101F047FA0400D5D100983F
:403B800006F07CFB0400D0D106F08EFB0400CCD101203070C9E700007C0100200020704700207047F8B50D4607460026FFF7F2FCFFF7DAFC00F02EFA040065D100F0B8FBFF
:403BC000040061D13449084600F0D4FD0404240C5AD1A80705D0A807800F0421081A401985B2172D02D968002E3886B22B48301881B2384601F0C0F8040045D1284F0346F3
:403C00000246002825D127495E008E5B294610318E4207D99000C01941800221521C4170D2B215E08E420BD10020787690001D49C0194680891FC95C891C4170012012E09D
:403C4000052A06D1164806461436418302207071012014495E008E5B9100C9194E80114EB61FF65C4E705B1C521CDBB2D2B2062BC7D30B4800F06CF8002C05D100F084F863
:403C800007490120891E087000F0D6F9002C01D0FF20F8BD0020F8BDBD3C0000940C00008A0100200636010010B503480078012801D100F0F1FE10BD8801002070470000FF
:403CC00010B5011F0878034A8000105800F0F4FF10BD0000CC10002010B5044604498000085800F057FF002801D00470001D10BDCC10002038B5044692B2C9B2684600F015
:403D00006FFF024AA1000098505038BDCC10002070B50B49064600204C6805466178002908D06188B14202D32078FFF7D5FF002804D1241D6D1CEDB2082DEFD370BD0000A4
:403D4000AC01002010B5002801D0FFF7B9FF10BD70B50B4E0446002570606178002905D062882078121D0023FFF7C4FF6D1C241DEDB2082DF1D3024800F0F0FFB06070BD54
:403D8000AC010020002070471CB5002469460C70142001902346054A05480CF07FFD04480068401C00D1FF2420461CBD053E0000B80100203EB5124A0146FF2000230124A1
:403DC000126800290DD0012914D0042908D104206946009308814B8110460CF05AFD80B23EBD6846009304814381694610460CF04BFDF4E768460093048143816946EBE7E5
:403E0000B801002070B54589046841680089030000F026F806240408081D2124002005F003FA1BE0022908D0C8B22A4621460AF0D7FF2046FFF786FF10E002202A4621466C
:403E40000AF0CEFF2946204600F018F806E000200CF018FA02E020460CF0A6FD002070BD30B47446641E2578641CAB4200D21D46635D5B00E31830BC18470000014B002230
:403E8000DB681847BC01002070B5448905680089022803D0032809D0FF2070BD2246094C0023A46829460120A04708E0FFF71AFE241DA2B200232946022006F0C2F80020DC
:403EC00070BD0000BC01002070470000024800214160018041807047BC01002070B50C46002186B016460391012802D0022859D116E003A9012006F0FCF801281BD1039DB0
:403F0000324621462846FFF7D8FD0095287801900220694608814E816846FFF7B5FF41E0214D002B686809D0049004A9022006F0E0F801281DD0022006B070BD002812D069
:403F4000298840182146FFF7B8FD28880024801980B228806988091D884206D12C801348FFF792FF03E00320E6E788421AD96C6018E004986860E278A378110219430B4AA8
:403F8000698000231060E3565360032313815181A1788170E178C1706178417021780170042028800020C7E7BC010020EC1000203EB515460C46022803D004280CD000208D
:403FC0003EBD0091019002206946088107484A8100680CF05EFC07E00AF002FF044B0022DB6829462046984701203EBDB8010020BC010020014AD16090607047BC01002056
:40400000034801688068081A0A21484300097047F810002010B5FFF7ADFA542204490548FFF74BFD03490120C870002010BD0000163601004813002010B5FFF78FFA10BD09
:4040400070B5134C2368002B08D0207B1149C20705D04008400020738868A08070BD88680B4AA18880B29268814203D90A4D691A091802E0814202D2411A5118A160A080B1
:40408000A0689842EAD300F015F80CF01FFC70BDF8100020C0102E40FFFF000010B508461946FFF7A7FF10BD704710B5FFF780FF10BD000003480021016041608160C160B3
:4040C00070470000F810002010B502000DD0FFF7F1FF074C0321207B0843207310010A21FFF74AFC2060002010BDFF2010BD0000F810002000B504480A21806848430209C4
:40410000FFF7D8FF104600BDF81000200248007B8007C00F70470000F810002070B558490868002802DA574B01221A70022290430860554800695249C00B4031096A0842FB
:404140006CD0012000F0C2FA4F4850497C30FFF7E9F94B480E216C30FFF7E4F94A4820218430FFF7DFF9484814219C30FFF7DAF94548FF21C131A430FFF7D4F94248FF21C2
:404180002F31B030FFF7CEF93F484149BC30FFF7C9F93D483F49AC30FFF7C4F93D493A48491CB430FFF7BEF937483B49B830FFF7B9F935483949CC30FFF7B4F93248384987
:4041C0000830FFF7AFF930483649A830FFF7AAF92D4835498830FFF7A5F92B4833498C30FFF7A0F928481921C9029030FFF79AF92F4D287E697E0C020443A87FE97F2D4AE6
:40420000090201432C48914201D1072C08D035229201914208D1042C05D005E0FF2070BD0146042400E0014617486C30FFF77AF9154821467430FFF775F9A87EE97E0902E1
:40424000014301204003814201D0002900D11B490D487830FFF766F92A7F687F010218481143814204D01748814201D0052901D113490A3904488030FFF754F9002070BD56
:4042800000F02E40CC01002000002E4055650000320300002F3F00003102000010520000EC160000FA12000031D000003AE30000C0F0FF0F580B0000580D0000022000007F
:4042C0000F0F00000505000070B50646581C80B245086D00002408E0304600F07FF81055000A1119A41C4870A4B2AC42F4D3D80705D0D0182038D15CC47FD454C17770BDCF
:4043000030B50A4C002100195B1E07E0541864782502545C2C430480891C89B29942F5DB994201D1515C018030BD000000102E4010B5FF2000F0CAF90F49FF2048700E48A9
:404340001021801D41800121417001700A490020C91C4870FFF7E2FE04000AD100F0DEF807210648FFF7D0F8044807211830FFF7CBF8204610BD0000CC010020CC112E40CB
:4043800030B504465B1C1804450C002308E0204600F024F8241D59005B1CA4B250529BB2AB42F4D330BD000070B500210A4D5B1E0AE0541864782602545C344346193480CC
:4043C000001D891C80B289B29942F2DB994202D1515C4019018070BD00102E40014940180088704700102E40014A80180180704700102E4010B50B490020487000F08EF8A7
:40440000002000F089F9002000F076F907210648FFF77AF8044807211830FFF775F8002010BD0000CF010020CC112E4010B506480078012803D102210448FFF773F80249A3
:404440000020C91E087010BDCF01002070F02E4010B50B46062812D006DC01280CD0032801D1FFF7C7FF10BD0A28FCD00B28FAD105480078107010BDFFF75AFF10BD11461E
:40448000184600F065F910BDD2010020F8B5204DAC6A0127A0071F4E002816DA307806280ED1286A384328621B480069F903084381B219481030FFF735F8042000F006F9A3
:4044C000134802212830FFF71FF8E00711D0062000F0FCF80F49FF20C91E48707078002802D1686B38436863094801212830FFF70BF8E0050BD53078042802D1052000F0B0
:40450000E5F80348FF2101312830FEF7FDFFF8BD40F02E40CF01002000002E4010B503212348FEF7FFFF0120FFF70AF820483038406A204C80076178800F890001431C48A1
:404540000C38FEF7EFFF6078002808D0401E022181401820FFF770FAC000083800E0B82081B21548FEF7DEFF1348032109021438FEF7D8FF10481149B830FEF7D3FF4521DF
:4045800089010F48FEF7CEFF0D480321001FFEF7C9FF0C490C48FEF7C5FF0B480B496038FEF7C0FF084801218838FEF7BBFF10BD70F02E40D2010020D8102E4090890000D0
:4045C000041E2E40FF0F000058122E4020900000044800684007400F022801D0002070470120704700010B4000B5FFF7F1FF002805D009480168C908C900016000BD0748FC
:40460000016A490849000162054801690122D2039143016100BD000000010B4040F02E4000002E400849087806280BD148780749002803D1486B400840004863C86A0122F6
:404640001043C86270470000CF01002040F02E400148007870470000CF01002002484078022800D001207047CC01002000B50300FFF7F6FB080D050D0B070507090D012034
:4046800000BD032000BD042000BD022000BDFF2000BD0000074A9168D26889B2064B92B2994204D105498A4201D1012100E000210170704780002E4033D000003FE3000073
:4046C0000149487070470000CF01002010B50446FEF74AFF072C01D9FF2C01D102480470FEF73CFF10BD0000CF0100200149487070470000CC01002010B5064A012805D056
:404700001921C9021046FEF70DFF10BD1D21C902F8E7000090002E4010B50A4A141D012808D009491046FEF7FDFE08492046FEF7F9FE10BD04491046891CFEF7F3FE03499D
:40474000491DF3E788002E4031D000003AE300000078074AFF2803D04C2804D9553803E01078087070474F380870107070470000CE01002010B50F4A002313600E4A136006
:404780000E4B18600E4801600E49012008600E490860000290600E490C4808600D4914300860FF381538506000F0BCF800F0CAF9002010BDF0010020D80100200402002023
:4047C00008020020F4010020E401002008120020E8010020FC010020014610B50020002910D0094B1A689C685118A14209D25868196080188A0704D08A07920F891A091DAE
:40480000196010BD002010BDD8010020F8B50024164E671E321F3D463168136806E01422624310328A58521C1BD0641C9C42F6D36A1C14D02C461422544322460C3288501E
:404840000C214843FFF7C8FF3168002808510AD031680020103408517068401C70602846F8BD2546E4E73846F8BD0000E8010020F3B50026F64381B000281BDB1E490968B2
:40488000884217D80299002914D01B4F142204463F1D54432546396810354859401C09D0FEF762FE38682F1F4159C359994203DBFEF754FE3046FEBD21460831009146589A
:4048C00001590C20704308180C220299FFF7F5F80948761C001D0068C159B14200D100260549009A091D865008684159491C4151FEF734FE0020FEBDE4010020002803DB55
:4049000007490968884202D90020C043704704491422091D096850431030085870470000E4010020F0B500200D4A451E0346171F50600FE014260146714314680E1DA351C1
:404940000C461668083433511668083435511468401C635039688842ECD30020F0BD0000E8010020F3B50026F64381B0002841DB2349096888423DD8029900293AD0204F67
:40498000142204463F1D54432546396810354859401C2FD0FEF7E8FD3868415900292BD0211D009146580C21005971430F46C1190C220298FFF781F811480021001D0068F3
:4049C000761C00590C34C0190160416081600C48001D00680159B14200D100260849009A091D865008684159491E4151FEF7B6FD0020FEBD3046FEBDFEF7B0FDFAE7000092
:404A0000E4010020FEB504460D4600201E49089E0860471E009001900290002C11D0486885420ED2002A0CD0002E0AD0642E08D808460C3001681C2068430C18207A0028D0
:404A400001D03846FEBD0120226020721846FFF7DDFE6060401C13D06681A6810A4827610C3067610179A94200D205710021684601810A462846029B00F040F82846FEBD33
:404A800000202072DDE70000F001002038B50124009400F039F838BDFEB50027164EFF433D4600240EE01C20316860430818017A002906D04068FFF721FF002801D025466A
:404AC00003E0641C3079A042EDDA681C12D01C2130684D434419FEF747FD69466068FFF741FF0546FEF73AFD002DD9D1216868468847D5E7FEBD0000FC01002038B50024FA
:404B0000009400F001F838BD1FB500220C49541E0A60002811DB496888420ED808491C220C31096850430818406801A9FFF7A0FE401C02D0002004B010BD2046FBE700007A
:404B4000F0010020F0B50021114A4D1E174611710C3F0B46BD6016E008461C2460431668041D355114680646235014680836A3551468361DA353044616680A34335318302E
:404B80001468491C255078688142E5D30020F0BDFC01002038B500210091002811DB0F49097888420DDA0D4D04010C3529680859002807D0201D0818694600F05FF9002810
:404BC00001D0002038BDFEF7CFFC28680F34015D491E0155FEF7C2FC009838BD0C020020F7B582B00025ED43029800240E460560002A49D0002E47D02D48D21C02402D4867
:404C0000174601780C30006805E022018258002A0FD0641CE4B28C42F7D3691C3ED02C01211D40180191314600F016F900282BD101E02546F1E71F480C30016820460C300D
:404C40000F521C480C30016820460E300E5419480C30016820460F300E543846704300F0ADF814490C310968002808510CD00024009011E00F480C30016801980818009996
:404C800000F017F9002802D0012005B0F0BD0098C019641CE4B20090B442EBD30298054905600C310879401C08710020EDE70000FCFF00000C020020F8B50D4600216A46DE
:404CC0008C461180002839DB23490978884235DA214B04010C3319680A59002A2ED020460C300B5A801C0E5C184670438018954224D3854222D2002006E007465F43BF1888
:404D0000AF4206D0401CC0B2B042F6D36046002814D0114E271DC8190C366A46294600F0F2F800280AD168460088012808D030682946C01900F0BDF8002803D00120F8BD22
:404D40000020F8BDFEF710FC30680F34015D491C0155FEF703FCF3E70C02002003460020002B06D0034A5168906852884018511A198070470C02002070B5002400F0DCF8DD
:404D80000D4E002132460C3271600EE0200113680546195013680C355953AD1C13680F3059551368641C1954E4B230788442EDD31171002070BD00000C020020014610B5E4
:404DC000002000290CD0C91C064B8A08596892005C888A18A24202D898685A60401810BD002010BD0C020020F8B5002827DB19490978884223DA174C05010C3421684859E1
:404E000000281CD028460C30085A009028460E300E5C401C0E5420682F1DC01900F064F800280CD12068002445590EE0094829460C300068C01900F03CF8002801D001203D
:404E4000F8BD00982D18641CE4B2B442EED30020F8BD00000C02002030B50D4604000BD0A800FFF7ABFF6060002805D000202570C0436080002030BD012030BD70B50D4689
:404E8000040005D0002D03D00220205E002801DA012070BDFEF768FB0221615E60688900405828606088401E6080FEF757FB002070BD70B50D46040007D0002D05D002214B
:404EC0002078615E401E814201DB012070BDFEF74BFB6088401C00B26080616880000D50FEF73CFB002070BD10B5040009D0227800216068FEF7EAFD0020C04360800020BC
:404F000010BD012010BDF0B500231D46002802D00224045F0AE00120F0BD46689F00F6598E4201D1012503E05B1CDBB29C42F4DA15700020F0BD0000054B11221A70054AAB
:404F40001180064A0449116005490860704700000C0200200E0200203812002018020020140200200148007870470000200200207CB505460024FEF7B5FDA87969460870A4
:404F800000A8062229460130FEF797FD0021684604F0A8FB0C2804D0072804D01F2804D004E0022402E0042400E0272420467CBD10B50024FEF796FD0021084604F096FB29
:404FC0000C2800D10224204610BD10B502280BD0032802D0042809D102E000F00BF905E000F0DAF9FF2801D100F0EAF9FFF730FBFFF73CFB10BD10B500F012FAFFF728FB47
:40500000FFF734FB10BD000010B503240CF07CF9002810D10CF020F900280CD105F0B8F8002808D100F0D8FB002804D104F0B4FD002800D10024024900200870204610BDC0
:40504000200200207CB505460024FEF74BFDA8796946087000A8062229460130FEF72DFD0021684604F050FB0C2802D01F2802D002E0022400E0072420467CBD70B5002511
:40508000044600280ED0A07901280BD8FEF72AFDA0790028204602D002F0B8FF03E002F06DFF00E00125284670BD10B5FFF7D0FA012801D1FFF7D2FA10BD38B504460120F4
:4050C000002C20D0617801291DD800290BD0FF25E535FEF707FD2846FFF780F9C0B22070072803D00EE0FF25CD35F2E70020694608706846FFF7CEFA69460878012801D1B6
:4051000008202070002038BD70B504460120002C1FD06178012902D92278092A19D8002906D0FF25E53520780726092803D003E0FF25CD35F7E72670FEF7D4FC207808284B
:4051400008D00020FFF7E8FA21782846FFF74CF9002070BD0120FFF7DFFA2670F4E7000010B50B480024807B00280ED0FFF770FA062801D0032800D1282405482030007975
:40518000022801D0012800D12824204610BD00009C13002070B50D46040001D0002000E00548002802D0012102F0DAF82946204602F03CFC70BD0000BC13002038B50546DF
:4051C00000200446009022466946284600F09CFF0098002801D00CF079F8A878214602F0E4F9A878214602F0D3F9641CE4B2052CE9D338BDF8B5624CFFF72AFA012846D15F
:4052000060480078002842D002F094FB0028FAD003F072FF0028F6D05B4E7078C00703D000F047FC0128EED0B07E0028E7D170780025002878D0000707D5AC20FFF7CEF814
:40524000070B00F061F9384321D14F484178684603F030FE4D4F06462079B9784018C1B2B14271D802F066FB002810D0464C203402F08DF96846008802F0B9F902F062FAAC
:4052800043490988884203D10120FFF71FFA74E04049012008703C48807B00282BD04034608A002827D0E07E002824D1A1200001FFF794F8208A4000B04218D978780028CA
:4052C00015D1A12424012046FFF788F80221884301462046FFF788F8FF24F1342046FFF77DF80321090201432046FFF77DF83878002800D03D7002F0BDF90120FFF7E0F9A7
:40530000244C08E0FDF7ACFFFFF7A2F906282CD02078002829D0FFF79BF9062825D020780128EFD021E0FFE702F004FB002824D0142002F05CF9174C0120207002F09AF9CD
:405340000020FFF7BDF909E015E0FDF789FFFFF77FF9062809D02078002806D0FFF778F9062802D020780128EFD0207801288BD1FFF73AF925700020F8BDFF20F8BD000091
:4053800088130020CC0100209C13002026020020380200202102002010B50848FF244078002809D102F0C6FA012805D1FFF73EF80720FFF78BF90024204610BD9C130020FB
:4053C00038B5FFF745F9012801D0002038BD02F0B1FA00280AD0114C6078C00703D000F068FB012802D0A07E002801D0FF2038BD617800290FD0684603F05CFD022806D9B2
:405400006846008802F0F3F8012002F039F90320FFF75CF9D9E70020F7E700009C13002038B5FFF715F9042819D0052817D006281AD0032842D007280AD100206946087059
:4054400002460120FFF704F8FFF702F90128FBD138BDFDF705FFFFF7FBF80128F8D0FFF7F7F80128F5D138BD02F028F905E0FDF7F7FEFFF7EDF8012803D0FFF7E9F80128A3
:40548000F5D1A12424012046FEF7A8FF01220E4983079B0F0A70022BE5D149880029E2D0104301462046FEF79FFF2046FEF796FF410849002046FEF797FF38BD02F002F99B
:4054C0000120FFF703F938BD26020020F8B50646002402F0ADFE0546304602F0C1FE00210346012632468A40174610462F401840002F03D0002801D1224394B2491CC9B25C
:405500000529EFD32046F8BD70B500252C460A4E03E0002C01D0002000E030460079002803D02046FFF7D2FF0543641C2406240EEFD0284670BD0000BC1300201CB50020F7
:40554000694648706846FFF7B8FD01AA69460A20FEF77EFF6946042008561CBD10B50C4601F076F9002809D00179002906D0C1788078224602F008FB002010BD022010BD10
:405580000148007870470000881300204030C07E002800D00120704700B500F001F800BD88214843064940186030417F491CC9B24177052901D300214177C8B27047000010
:4055C0009C13002013B501F043F904000BD001F09AFC002807D0214601AA0A310620FEF737FF00201CBD02201CBD000010B50C4601F02EF900280AD001F085FC002806D04F
:40560000224604490A20FEF723FF002010BD022010BD000071130020F3B581B0074601460026029802F0FCFD0446002F01D0002500E0154D002D21D0284601F03FF9032C47
:4056400004D13946029802F015FE06463846029901F09EFF032C06D0002C10D00121384601F01AFA03E03146384602F0B7FF284601F05CFE0221284601F072FEFEBD38462A
:40568000029901F085FFFEBDBC13002070B50446002503F0A5FB002801D00C2070BD2078611C02F06BFBFF2802D01F25284670BD02F0B8FBFF2804D02178621C01F0DAFEF2
:4056C000F4E70725F2E710B503F08AFB002801D00C2010BD02F02AFB002010BD70B50D46044610210BF032FD1021601806460BF02DFD334610221946204603F09DFB102134
:4057000030460BF023FD02202870204604F09CF970BD70B504464078217802028006850FE0781143A67809050002090D0643084601F08EF8002812D0022D10D0032D0ED0FF
:40574000002E08D00179092909D0002907D0214600F0A1F870BD0089002104F0AAF820460BF0B4FD70BD0020704770B50446002503F036FB002801D00C2070BD2078611C0C
:4057800002F0FCFAFF2802D002F03EFA00E01F25284670BD10B504F0FFF900F0F6F8002010BD10B5044600786178E2780843A17811430843217908436179084305D003F014
:4057C00001FB002803D00C2010BD122010BD204602F01CFC002010BD10B5044803F01CFC02F01CFA00F004F8002010BD58130020F8B5114D00266E706E736E716E76AE76FE
:40580000EE766E75AE70EE70AE712F46EE730120B03778723F2078719B20B87100F00AFA0024204601F036FB641C2406240EF8D03E72FE71AE73F8BD9C13002070B505461A
:405840000E46084602F0F4FC0446304602F008FD0121A9400A46224001400A4301D0012070BD002070BD10B50446084602F0F8FC0121A140014201D0012010BD002010BD01
:4058800010B5FEF7E5FE032804D101F01BFF0120FEF71CFF10BD70B5044600790D4609281CD000281AD020464030817E491C8176204601F03BFDA078FFF76EFE064602460A
:4058C0002946204600F00CF8002806D1A0783146FFF760FC28460BF0F9FC70BD0846FAE7F7B5054648780C468006870FC8788978000282B0014368468180284601F00EFB50
:40590000060007D021462846049A00F091FB304605B0F0BD384600F039FC0746034601AA2946204600F0CAFA68468088231DC0B20090A878FF22049902F032F868468088AE
:405940003B46C2B2A878049902F0DCFBDFE770B5002500242846FFF7B9FD060010D03046E040C007C00F07D02146284601F003FE21462846FFF750FE641CE4B2052CEED38D
:405980006D1C2D062D0EE4D070BD10B502F046F9FFF72EFF0BF002FD002010BDF8B5002400F081F80123012800D10124104F00203E4620360425082203E0002801D00021E9
:4059C00000E031460979002907D001290BD002290BD0114681402143CCB2401C0006000EEBD07C70F8BD1C43F7E72C43F5E700009C13002010B5FFF7D1FF10BD10B50B4638
:405A000081791943817103D08078114602F03EFB10BD10B582798A43827102D1807802F04DFB10BD70B5FF25D53502242846FEF7D5FC0C4A9178002901D0022906D113781F
:405A400052789A18282A01D9032402E0032900D101244105490DE00201432846FEF7C4FC70BD00002202002010B500F022F8002807D0012805D0032801D0042801D0002018
:405A800010BD012010BD014610B50020C90701D000F009F810BD014610B50020C90701D000F001F810BD10B52020FEF797FC000A10BD10B51820FEF791FC410501D50420FA
:405AC00010BD4007800F10BD38B5044640060CD5684601F007FE0220FFF78CFF072002F0B9F96846007801F03FF9200613D5FFF7E0FF01280FD1684601F0F4FD68460078D5
:405B000000F09AFA072002F0A5F9012001F076FC0220FFF76FFF38BD10B5034A0178117002F0A7F9002010BD2202002010B50446FFF7B9FF002801D00C2010BDA27B01216E
:405B40001848002A827801D00A4301E05208520082706279012A0FD0C17849084900C170207901280CD06188208802F0A5FF2080207904280BD00DE0C2780A43C270EFE79A
:405B8000E01D02F02BFA0848808C208002E0E01D02F024FA054920798870204602F078F9002010BD9C130020481300202202002038B50478FFF777FF844201D10C2038BD35
:405BC000002C18D0072069460870FFF74DFF012807D10121684600F08DF8012801D0092038BD6846007802F035F9FFF71BFF02F07FF9012010E0FFF737FF012806D16846F8
:405C000001F070FD6846007800F04AFA072002F021F902F061F90220FFF7ECFE002038BD10B5034A0178517002F008FA002010BD2202002038B568460BF0DEFA002801D03E
:405C40001F2038BD01210098C90201804180002505714571857107214173857302F018F9009C202200212046FDF730FF25702A460021601CFDF72AFF204602F0FAF8204614
:405C800002F0DCF900980BF021FB042200210248FDF71CFF002038BD220200200346084800B5834209D8184600F0D2FD002804D00089984201D1012000BD002000BD000078
:405CC000FF0E0000074A9179491C8906890E917138220A4092014907090E114308430249084070479C130020FF0E0000C006C00E70470000F8B507460E4600240D4803E057
:405D0000002C01D0002500E005462979002905D0641C2406240EF3D00020F8BD204601F0B9F82E712046FFF7CDFF28813C700120F8BD0000BC13002010B503F0B1F8022294
:405D4000002100F003F801F011FF10BD10B5094B40074907000F090F185A595A40185043C0086421FDF708FE002800D1012080B210BD00006A360100F7B53D20405C88B084
:405D800016460C46002829D030786946087200252046FFF7FBFB012800D00125204603A938300191009023460327A17E34332A46206A03F04BF902A8089900900B46019109
:405DC00020463A4603A9243003F018F802466846007A3070204601F049F810460BB0F0BDFFB587B00C4605461078694608723D20005D1746002826D000262046FFF7C6FBA3
:405E0000012800D00126204603A93830019100902346A17E34333246206A03F017F902A80090291D019120462B1D03A924300A9A02F0E4FF02006846007A388002D120465E
:405E400001F014F810460BB0F0BDF7B53C20405C88B015460C4600280CD0287869460872002806D000262046FFF790FB012803D003E01F200BB0F0BD0126204603A93830DF
:405E80000191009023460327E17E34333246E06903F0DCF802A8089900900B46019120463A4603A9243002F0DBFF02466846007A2870204600F0E4FF1046DBE7FFB5054617
:405EC0003C20405C87B016460C46002810D0084601F024F801280BD0308869460883002809D000272046FFF751FB012805D005E000200BB0F0BD0220FBE70127204602A9F4
:405F00003830019100902346E17E34333A46E06903F09CF806A80090291D019120462B1D02A924300A9A02F09BFF02466846008B30806846008BA870000AE870204600F02B
:405F40009FFF1046D5E770B50D460446FFF71EFB01280AD0E87AA97A00020143A07801F0C3FC012808D0002070BD00222421204602F0ECFC242070BD28214C200155204633
:405F800000F09AFB282070BD002801D0002000E003484030C07F012800D0002070470000BC1300200146002049070ED50021084B03E0002901D0002200E01A461279022A31
:405FC00004D0491C0906090EF3D0704701207047BC1300200146002049070ED50021084B03E0002901D0002200E01A461279022A04D0491C0906090EF3D07047012070474C
:40600000BC13002010B5044680346068002803D00BF070F90020606010BD4030417070474030817070474030017070470171704792001018C166704770B53C2501F0F8F82A
:40604000040004D020460021433001F0EDFB2946204600F0C0FB002C02D0A07801F07AF870BD000010B5002801D0002000E00348002802D0008903F063FC10BDBC130020B5
:4060800010B5002801D0002000E00448002804D00179072901D100F041F810BDBC13002010B501F0C5F8002802D0807801F052F810BD00207047000070B50546008A002813
:4060C0001ED010491122897A1140C90618D5294640314A8A098A521C4A4392B2D10800D10121540801E0621A94B2A042FBD9FEF739FF012804D1298AA878224601F0E4FCD8
:4061000070BD00004813002000230B60052A04D292001018C26E0A60C366704738B5044600200090A079002814D14020015D052901D00E290ED168460BF06EF8002809D1FF
:406140002046009902F0EAFB03481021C28A2046FFF754FC38BD00004813002010B50B4604460146184602F0B9F8002802D020460BF0B6F810BD13B5044601AA11460620AD
:40618000FEF766F96846818861811CBD002800D10220704770470000F8B504462346401D543300909A1EA078911E01F0AAFA25464035A88A298A8000FDF7DEFB401E81B205
:4061C000688A884203D96982A07801F0EAFF20460021433001F028FB8020FEF7FFF8E88102F05EFEE989891C8AB26179FFF7AEFD01F0BCFC02F054FE2A8A6179FFF7A6FDF7
:40620000074601F0A5FC688A00280BD0FF26F1363046FEF7E3F80321090201433046FEF7E3F802E0002001F0AAFFFF206130FEF7D5F86E8A002E0BD070431049FDF7FCFB39
:406240000004000C01D0401C80B20D49488002E00B4800214180288A704381B2A07801F0FBFE2837B9B2204602F02AFCE98AA07801F04AFEA07801F0AEF9F8BD71020000FC
:40628000260200207FB504468034616805460E46183108226846FDF710FC31462031082202A8FDF70AFC102168460AF04FFF6068102108300AF04AFF60682B4608302433E2
:4062C0001022694602F0B8FD7FBD10B504460821FFF79FFB10212046FFF79BFB207905281FD006281DD008281AD12189002003F09FFA072020712046FFF748F901462046AC
:406300004030012913D00E21017000210176204600F02CFF2046FFF775FE2046FFF7CCFE10BD20890122002103F066FAE1E70521EAE70000FFB581B01F4604460821FFF7B3
:4063400068FB10212046FFF764FB2079082803D0092804D0042203E00422012501E009220025204600F0C6FD264600204036307022712046FFF746FE0398002D02D00128F6
:4063800008D00BE001280AD120890022029903F033FA04E02189029803F04AFA012700203076012F04D0204600F0E0FE05B0F0BD02983073204602F0F5FA0546054801216B
:4063C000C28A2046FFF71AFB002DEFD109202071ECE700004813002070B50C460546FFF7D5F8012809D108212846FFF712FB0023012221462846FFF79DFF70BD10B50446E0
:4064000000F078FD2046FFF7FDFD00214034217010BD70B505461A24FFF7B8F8012809D108212846FFF7F5FA0023012221462846FFF780FF70BD0000F8B504460020009077
:406440000E4668460AF0E8FE002801D00D20F8BD8420005908212030009D00F0F4F920460421383000F0EFF9002E02D1204600F07FFD2946204602F0E1F90E480821C28A65
:406480002046FFF7BBFA204600F0D7FE25464035002808D0204600F023F8002801D0092028700020F8BD08202870204600F03EFFF7E7000048130020014610B540310A4647
:4064C0000978082906D0092907D00A2901D100F091F810BD0B20107010BD00F001F810BD70B50446007925464035052805D0062803D008280FD00C2070BD032206212046AD
:4065000002F024FA0D480821C28A2046FFF776FA1120287010E006202873204602F042FA0646AA8A0A20424301212046FFF766FA002E01D109202071002070BD4813002018
:4065400038B504460020009068460AF065FE002801D00D2038BD2046009D00F08BF908202071204600F004FD2946204602F098F900213D2001550F2040210855204600F018
:40658000D5FE002038BD00B5024600F0B3FC10214032117000BD10B50446FEF7F7FF012809D04020005D112805D100231A4606212046FFF7BFFE10BD10B5FFF786FE10BD12
:4065C00038B504460021684600910AF025FE00280CD12046009902F0DAF905480821C28A2046FFF70BFA0D204034207038BD00004813002038B504460021684600910AF0C9
:406600000BFE002801D00D2038BD2046009902F0B3F905480821C28A2046FFF7EFF90C2040342070002038BD4813002000787047F8B50025002801D0002400E01A4C002C43
:4066400028D0204600F05FFC002823D0207903281CD005281CD026464036B18AA07801F009FDB078012815D10021204601F053FE274680373868002802D00AF03BFE3D60D3
:406680000020B0702079072805D007E0042000E006202071F8BD2046FFF70EFD0221204600F05EFEF8BD0000BC13002010B54C22115400F046F810BD10B50446FF21FFF70E
:4066C000A8F909202071A07801F004FD10BD000038B5FF216A461180002801D0002400E0064C002C08D011460620FDF7B1FE684601882046FFF73FFD38BD0000BC130020F4
:4067000010B504468079002809D022214C200155FF212046FFF77DF9204600F012F810BD10B5037902464032002B03D01173092B02D003E0002100E02221117300F001F815
:4067400010BDFEB504460089002701902781207926464036002817D0012815D002280AD112E002AA6946204601F0A6FD002807D100980AF0B5FD204601F0C6FD0028F0D03C
:406780002046FEF71BFDB776254680352868002802D00AF0AFFD2F606868002802D00AF0A9FD6F60317B002902D0019800F044F8A078002100F028FF2046FFF7BDFAA0783A
:4067C00001F07CF8A07800F0C5FC0B20FFF712F900F004FCFEBD70B50E46054602F05CFB044606702846FEF7D1FE014601204140204661700C3001F000F8002D10D0288992
:40680000608028464030C1782171002E10D169796171018AE180418A2181808A608107E01820FDF7DBFDC005C00F207100206080204602F0A6FF70BD0A4610B50146002012
:4068400003F096F810BD10B50AF05CFA10BD000000B50146FFF74AFA002801D0002000E00348002802D002898A4200D0002000BDBC13002038B5044680346068002806D1CF
:4068800068460AF0D9FC002801D100986060606838BD000010B5014600F040FB0128887802D0FEF77DFE10BD88214843024940186030007F10BD00009C13002070B50546EB
:4068C00004464035A87F012811D1A1788820084A484380186030067F3046FEF7AFFF002805D10220A877A078314601F0ADF870BD9C13002010B50E4CE079002816D0FFF767
:4069000026F80C48827FC17F808B00F06FFB01280CD10020E07100F0EEFE0446AC20FDF75DFD010B02D0204600F00EFA10BD00004C1400209C13002070477047490510B5AF
:40694000490F0B00FDF78CFA060704080C0C0F073E21FFF7ABFE10BD0821FFF7E1FE10BDFFF7EFFE10BDFFF7CBFE10BDF8B507460025002D01D0002600E0204E00F070FE32
:406980003046403044890021418100F08FFE304600F0B9FA01282BD1A00702D52846FFF747FEE00602D52846FFF792FEA00601D5FEF7CDFF600601D500F0CCFA200602D582
:4069C000284600F01DF8600702D5284600F0FEF9380402D52846FFF753FB780402D52846FFF740FBE00703D021463046FFF7A6FF6D1C2D062D0EBCD0F8BD0000BC13002081
:406A0000F8B5002801D0002400E0204C002C39D025464035A878012834D1E98AA07801F073FA2046FEF7B2FD01282BD002F038FA2A8A6179FFF78AF9064601F089F828367F
:406A4000B1B2204602F03CF8E98AA07801F05CFAFF206130FDF7C2FC6E8A0D4F0146002E11D0304648430B49FCF7E6FF0004000C01D0401C80B27880288A704381B2A07805
:406A800001F0EAFAF8BD0020F5E70000BC130020260200207102000070B50D46124A010001D0002401E014462034002C1BD0204600F034FA01280AD1882048438018603053
:406AC000007FFEF7BBFE002801D101F0F5FE20464030817E491B8176204600F027FC2089294602F0E6FE70BD9C13002070B503460088FFF7ADFE040013D000F004FA002864
:406B00000FD02079092819D02546997840352973204601F047FF0646A878012803D0AA8A02E0022070BDEA880A20424301212046FEF764FF002E01D109202071002070BDC4
:406B40000EB5002217216B460292198100905A810120029B00990AF03FFC0EBDF8B5184E0024F079002820D10025AC20FDF736FC000B21E0204600F073FEFDF72FFC074648
:406B80002A46214600F032FA01280FD00D48012187838577C477F171002D01D0002000E02030002801D000F0C1FBF8BDAC20FDF715FC000B641CE4B20028DBD1F8BD00009D
:406BC0004C1400209C13002010B50088FFF740FE002809D0014640310C460978082905D00B2903D00C2010BD022010BDFFF778FC002801D009202070002010BD70B50346CD
:406C00000088FFF725FE040008D0254640352878082805D00B2803D00C2070BD022070BD8420005910220830991CFCF746FF2046FFF728FB2878082804D02046FFF7DAFCFB
:406C4000002801D00A202870204600F06FFB002070BD000010B50C46002121700088FFF7F7FD03000BD000F04EF9002807D009481121807A0840C00603D4112010BD02207B
:406C800010BD022020701A8A1889002102F08CFE002010BD48130020F8B50F46002100910088FFF7D5FD040012D000F02CF900280ED0E079410641D4617E02264A07002ACF
:406CC00008DB8907402500291ADA2843E07135E00220F8BD02F0E0F80021017021894180A1898180217E4170E189C1803E7005460178134802F0BEFB284602F0F9FD1DE03F
:406D0000204600F011F9012806D068460AF084FA002803D00720F8BD2A20F8BDE07900992843E071204601F067FE607E0421304360760448C28A2046FEF760FE0020F8BD1C
:406D40001D040000481300203EB500220F236C460292238100910190628169460EC900200AF03AFB3EBD000070B5054600F060FA040024D003202071254600264035EE76A1
:406D8000E6702046FFF708FA01F0A6F80920FEF731FEA07800F080FD0121204600F0E0FA2E706E70AE7000212046FFF714FD0649887B401C8873012001F0C0F970BD284635
:406DC00001F088F970BD00009C13002010B5002801D0002400E00A4C002C0FD020464030417802290AD1002141702046FEF7CEFB002803D10221204600F0B2FA10BD000089
:406E0000BC13002070B503460D460088FFF720FD04000BD000F077F8002807D012481121807A0840C00603D4112070BD022070BD20464030418A008A491C41430804C10CC5
:406E40005888884201D2122070BD20822079072802D12046FFF730F9022028702089002102F0CAFD002070BD48130020016A491C016204D1817E491C4906490E81767047AF
:406E8000C169491CC16104D1C17E491C4906490EC176704770B500250646002801D0002400E0114C002C1CD0882200212046FCF70DFEA6700020264620714036307020462E
:406EC00000F018F8204601F01BFA084820820848B577807A1121084000D001202075012070BD002070BD0000BC130020B80B000048130020002101628176C161C1762030D2
:406F00000177417770470079002805D0012803D0022801D001207047002070474030807F002800D00120704740300078002807D0012805D0052803D00E2801D0012070474B
:406F40000020704710B5807801F08AF9002800D0012010BD10B500F0CEFB0446AC20FDF73DFA010B02D02046FFF7EEFE10BD000070B5054604464035A87F002823D1FF20E0
:406F80006075A0788821144A484380186030417F8823491CC9B24177A078584380186030052901D300214177A0788821484380186030467F0677A1783046FEF73FFC0028D4
:406FC00002D00120A87770BD0220A877A078314600F03AFD70BD00009C1300200020401C0006000EFBD0002070470000F0B515468207920F85B0C004C00E02926A469080E8
:40700000002D01D0002400E0514C002C29D0084600F026FC03906846808800280BD00298012845D0022843D003280CD03D20005D012872D086E00398FDF7D0F90146204634
:40704000FFF799F87EE00020029002A80AF0C4F8002807D03D20005D012876D12046FFF705FF72E06846029E8388324600210398FDF72AF90398FDF7B1F901462046FFF7BE
:407080007AF8284600F0B9FA01AA21463046FEF773FE002806D030460AF00EF93D204C21085528E0F5773146204601F077FA4CE000200090278968460AF07EF8002802D06C
:4070C000002005B0F0BD6846009E8388321D00210398FDF7F9F80398FDF780F901462046FFF749F8284600F088FA25464035287E00280CD103E02046FFF7DEFA25E001AAA9
:4071000021463046029BFEF76BFE002806D030460AF0C8F83D202873EDE710E00298FFF739F8390A000101433770717068468088B070000AF0703046FFF702FD05E02046C6
:40714000FFF794FE284600F058FA0120B9E70000BC13002010B5044A917B002901D0491E9173FFF797FE10BD9C130020F8B5074606464037B87F00283DD0B07888210090F2
:4071800048431F4945186035287F0099FEF76BFB012831D0287F401CC4B2052C00D300240020B877FF276F772F77A87702460146009800F0C9FD717DFF2903D0304601F037
:4071C00060F8777501F078FB00252F462246694630460097FEF798FF0099002902D03046FEF759FB641CE4B2052C00D300246D1CEDB2052DEAD3F8BD0320B877F8BD000039
:407200009C13002010B502460021084B03E0002901D0002000E018460479944204D0491C0906090EF3D0002010BD0000BC13002000B50120FFF7E6FF00BD10B5044601F004
